{
  "contractName": "MultisigWallet",
  "abi": [
    {
      "inputs": [
        {
          "internalType": "address[]",
          "name": "_senators",
          "type": "address[]"
        },
        {
          "internalType": "uint256",
          "name": "_threshold",
          "type": "uint256"
        }
      ],
      "stateMutability": "nonpayable",
      "type": "constructor"
    },
    {
      "stateMutability": "payable",
      "type": "fallback",
      "payable": true
    },
    {
      "inputs": [],
      "name": "threshold",
      "outputs": [
        {
          "internalType": "uint256",
          "name": "",
          "type": "uint256"
        }
      ],
      "stateMutability": "view",
      "type": "function",
      "constant": true
    },
    {
      "stateMutability": "payable",
      "type": "receive",
      "payable": true
    },
    {
      "inputs": [
        {
          "internalType": "uint256",
          "name": "_amount",
          "type": "uint256"
        },
        {
          "internalType": "address",
          "name": "_to",
          "type": "address"
        }
      ],
      "name": "createProposal",
      "outputs": [],
      "stateMutability": "nonpayable",
      "type": "function"
    },
    {
      "inputs": [
        {
          "internalType": "uint256",
          "name": "id",
          "type": "uint256"
        }
      ],
      "name": "approve",
      "outputs": [],
      "stateMutability": "nonpayable",
      "type": "function"
    },
    {
      "inputs": [],
      "name": "getSenators",
      "outputs": [
        {
          "internalType": "address[]",
          "name": "",
          "type": "address[]"
        }
      ],
      "stateMutability": "view",
      "type": "function",
      "constant": true
    },
    {
      "inputs": [],
      "name": "getProposals",
      "outputs": [
        {
          "components": [
            {
              "internalType": "bool",
              "name": "hasPaid",
              "type": "bool"
            },
            {
              "internalType": "uint256",
              "name": "amount",
              "type": "uint256"
            },
            {
              "internalType": "address",
              "name": "to",
              "type": "address"
            },
            {
              "internalType": "address[]",
              "name": "approvers",
              "type": "address[]"
            }
          ],
          "internalType": "struct MultisigWallet.Proposal[]",
          "name": "",
          "type": "tuple[]"
        }
      ],
      "stateMutability": "view",
      "type": "function",
      "constant": true
    }
  ],
  "bytecode": "0x60806040523480156200001157600080fd5b506040516200136a3803806200136a833981810160405281019062000037919062000336565b81600090805190602001906200004f9291906200005f565b508060018190555050506200039c565b828054828255906000526020600020908101928215620000db579160200282015b82811115620000da5782518260006101000a81548173ffffffffffffffffffffffffffffffffffffffff021916908373ffffffffffffffffffffffffffffffffffffffff1602179055509160200191906001019062000080565b5b509050620000ea9190620000ee565b5090565b5b8082111562000109576000816000905550600101620000ef565b5090565b6000604051905090565b600080fd5b600080fd5b600080fd5b6000601f19601f8301169050919050565b7f4e487b7100000000000000000000000000000000000000000000000000000000600052604160045260246000fd5b620001718262000126565b810181811067ffffffffffffffff8211171562000193576200019262000137565b5b80604052505050565b6000620001a86200010d565b9050620001b6828262000166565b919050565b600067ffffffffffffffff821115620001d957620001d862000137565b5b602082029050602081019050919050565b600080fd5b600073ffffffffffffffffffffffffffffffffffffffff82169050919050565b60006200021c82620001ef565b9050919050565b6200022e816200020f565b81146200023a57600080fd5b50565b6000815190506200024e8162000223565b92915050565b60006200026b6200026584620001bb565b6200019c565b90508083825260208201905060208402830185811115620002915762000290620001ea565b5b835b81811015620002be5780620002a988826200023d565b84526020840193505060208101905062000293565b5050509392505050565b600082601f830112620002e057620002df62000121565b5b8151620002f284826020860162000254565b91505092915050565b6000819050919050565b6200031081620002fb565b81146200031c57600080fd5b50565b600081519050620003308162000305565b92915050565b6000806040838503121562000350576200034f62000117565b5b600083015167ffffffffffffffff8111156200037157620003706200011c565b5b6200037f85828601620002c8565b925050602062000392858286016200031f565b9150509250929050565b610fbe80620003ac6000396000f3fe60806040526004361061004e5760003560e01c806309a73f701461005757806342cde4e81461008257806362564c48146100ad57806374a9e440146100d8578063b759f9541461010157610055565b3661005557005b005b34801561006357600080fd5b5061006c61012a565b6040516100799190610a20565b60405180910390f35b34801561008e57600080fd5b506100976101b8565b6040516100a49190610a5b565b60405180910390f35b3480156100b957600080fd5b506100c26101be565b6040516100cf9190610c34565b60405180910390f35b3480156100e457600080fd5b506100ff60048036038101906100fa9190610cb3565b610326565b005b34801561010d57600080fd5b5061012860048036038101906101239190610cf3565b610507565b005b606060008054806020026020016040519081016040528092919081815260200182805480156101ae57602002820191906000526020600020905b8160009054906101000a900473ffffffffffffffffffffffffffffffffffffffff1673ffffffffffffffffffffffffffffffffffffffff1681526020019060010190808311610164575b5050505050905090565b60015481565b60606002805480602002602001604051908101604052809291908181526020016000905b8282101561031d57838290600052602060002090600402016040518060800160405290816000820160009054906101000a900460ff16151515158152602001600182015481526020016002820160009054906101000a900473ffffffffffffffffffffffffffffffffffffffff1673ffffffffffffffffffffffffffffffffffffffff1673ffffffffffffffffffffffffffffffffffffffff1681526020016003820180548060200260200160405190810160405280929190818152602001828054801561030557602002820191906000526020600020905b8160009054906101000a900473ffffffffffffffffffffffffffffffffffffffff1673ffffffffffffffffffffffffffffffffffffffff16815260200190600101908083116102bb575b505050505081525050815260200190600101906101e2565b50505050905090565b600080600090505b6000805490508110156103c9573373ffffffffffffffffffffffffffffffffffffffff166000828154811061036657610365610d20565b5b9060005260206000200160009054906101000a900473ffffffffffffffffffffffffffffffffffffffff1673ffffffffffffffffffffffffffffffffffffffff1614156103b657600191506103c9565b80806103c190610d7e565b91505061032e565b508061040a576040517f08c379a000000000000000000000000000000000000000000000000000000000815260040161040190610e24565b60405180910390fd5b6060600260405180608001604052806000151581526020018681526020018573ffffffffffffffffffffffffffffffffffffffff16815260200183815250908060018154018082558091505060019003906000526020600020906004020160009091909190915060008201518160000160006101000a81548160ff0219169083151502179055506020820151816001015560408201518160020160006101000a81548173ffffffffffffffffffffffffffffffffffffffff021916908373ffffffffffffffffffffffffffffffffffffffff16021790555060608201518160030190805190602001906104fe929190610889565b50505050505050565b600080600090505b6000805490508110156105aa573373ffffffffffffffffffffffffffffffffffffffff166000828154811061054757610546610d20565b5b9060005260206000200160009054906101000a900473ffffffffffffffffffffffffffffffffffffffff1673ffffffffffffffffffffffffffffffffffffffff16141561059757600191506105aa565b80806105a290610d7e565b91505061050f565b50806105eb576040517f08c379a00000000000000000000000000000000000000000000000000000000081526004016105e290610e24565b60405180910390fd5b8160028054905011610632576040517f08c379a000000000000000000000000000000000000000000000000000000000815260040161062990610e90565b60405180910390fd5b60006002838154811061064857610647610d20565b5b90600052602060002090600402019050600015158160000160009054906101000a900460ff161515146106b0576040517f08c379a00000000000000000000000000000000000000000000000000000000081526004016106a790610efc565b60405180910390fd5b600081600301905060005b8180549050811015610786573373ffffffffffffffffffffffffffffffffffffffff168282815481106106f1576106f0610d20565b5b9060005260206000200160009054906101000a900473ffffffffffffffffffffffffffffffffffffffff1673ffffffffffffffffffffffffffffffffffffffff161415610773576040517f08c379a000000000000000000000000000000000000000000000000000000000815260040161076a90610f68565b60405180910390fd5b808061077e90610d7e565b9150506106bb565b5080339080600181540180825580915050600190039060005260206000200160009091909190916101000a81548173ffffffffffffffffffffffffffffffffffffffff021916908373ffffffffffffffffffffffffffffffffffffffff1602179055506001548180549050106108835760018260000160006101000a81548160ff0219169083151502179055508160020160009054906101000a900473ffffffffffffffffffffffffffffffffffffffff1673ffffffffffffffffffffffffffffffffffffffff166108fc83600101549081150290604051600060405180830381858888f19350505050158015610881573d6000803e3d6000fd5b505b50505050565b828054828255906000526020600020908101928215610902579160200282015b828111156109015782518260006101000a81548173ffffffffffffffffffffffffffffffffffffffff021916908373ffffffffffffffffffffffffffffffffffffffff160217905550916020019190600101906108a9565b5b50905061090f9190610913565b5090565b5b8082111561092c576000816000905550600101610914565b5090565b600081519050919050565b600082825260208201905092915050565b6000819050602082019050919050565b600073ffffffffffffffffffffffffffffffffffffffff82169050919050565b60006109878261095c565b9050919050565b6109978161097c565b82525050565b60006109a9838361098e565b60208301905092915050565b6000602082019050919050565b60006109cd82610930565b6109d7818561093b565b93506109e28361094c565b8060005b83811015610a135781516109fa888261099d565b9750610a05836109b5565b9250506001810190506109e6565b5085935050505092915050565b60006020820190508181036000830152610a3a81846109c2565b905092915050565b6000819050919050565b610a5581610a42565b82525050565b6000602082019050610a706000830184610a4c565b92915050565b600081519050919050565b600082825260208201905092915050565b6000819050602082019050919050565b60008115159050919050565b610ab781610aa2565b82525050565b610ac681610a42565b82525050565b600082825260208201905092915050565b6000610ae882610930565b610af28185610acc565b9350610afd8361094c565b8060005b83811015610b2e578151610b15888261099d565b9750610b20836109b5565b925050600181019050610b01565b5085935050505092915050565b6000608083016000830151610b536000860182610aae565b506020830151610b666020860182610abd565b506040830151610b79604086018261098e565b5060608301518482036060860152610b918282610add565b9150508091505092915050565b6000610baa8383610b3b565b905092915050565b6000602082019050919050565b6000610bca82610a76565b610bd48185610a81565b935083602082028501610be685610a92565b8060005b85811015610c225784840389528151610c038582610b9e565b9450610c0e83610bb2565b925060208a01995050600181019050610bea565b50829750879550505050505092915050565b60006020820190508181036000830152610c4e8184610bbf565b905092915050565b600080fd5b610c6481610a42565b8114610c6f57600080fd5b50565b600081359050610c8181610c5b565b92915050565b610c908161097c565b8114610c9b57600080fd5b50565b600081359050610cad81610c87565b92915050565b60008060408385031215610cca57610cc9610c56565b5b6000610cd885828601610c72565b9250506020610ce985828601610c9e565b9150509250929050565b600060208284031215610d0957610d08610c56565b5b6000610d1784828501610c72565b91505092915050565b7f4e487b7100000000000000000000000000000000000000000000000000000000600052603260045260246000fd5b7f4e487b7100000000000000000000000000000000000000000000000000000000600052601160045260246000fd5b6000610d8982610a42565b91507fffffffffffffffffffffffffffffffffffffffffffffffffffffffffffffffff821415610dbc57610dbb610d4f565b5b600182019050919050565b600082825260208201905092915050565b7f596f75206172656e277420612073656e61746f72210000000000000000000000600082015250565b6000610e0e601583610dc7565b9150610e1982610dd8565b602082019050919050565b60006020820190508181036000830152610e3d81610e01565b9050919050565b7f5468652050726f706f73616c20646f65736e2774206578697374210000000000600082015250565b6000610e7a601b83610dc7565b9150610e8582610e44565b602082019050919050565b60006020820190508181036000830152610ea981610e6d565b9050919050565b7f5468652050726f706f73616c20686173206265656e2070616964210000000000600082015250565b6000610ee6601b83610dc7565b9150610ef182610eb0565b602082019050919050565b60006020820190508181036000830152610f1581610ed9565b9050919050565b7f596f7520616c7265616479206861766520617070726f76656421000000000000600082015250565b6000610f52601a83610dc7565b9150610f5d82610f1c565b602082019050919050565b60006020820190508181036000830152610f8181610f45565b905091905056fea2646970667358221220c472bbf211f50ee539a25693c3ed4ec3f07f83fb7bbed51dc1eb54df7df39b0164736f6c634300080a0033",
  "immutableReferences": {},
  "source": "// SPDX-License-Identifier: MIT\r\npragma solidity ^0.8.0;\r\n\r\ncontract MultisigWallet {\r\n    /* \r\n        1.  senators\r\n        2.  threshold\r\n        3.  NewProposal\r\n        4.  proposals\r\n    */\r\n    address[] senators;\r\n    uint256 public threshold;\r\n    Proposal[] proposals;\r\n\r\n    struct Proposal {\r\n        bool hasPaid;\r\n        uint256 amount;\r\n        address to;\r\n        address[] approvers;\r\n    }\r\n\r\n    modifier onlySenator(){\r\n        bool isSenator;\r\n        for (uint256 i = 0; i < senators.length; i++) {\r\n            if (senators[i] == msg.sender) {\r\n                isSenator = true;\r\n                break;\r\n            }\r\n        }\r\n        require(isSenator, \"You aren't a senator!\");\r\n        _;\r\n    }\r\n\r\n    constructor (address[] memory _senators, uint256 _threshold) {\r\n        senators = _senators;\r\n        threshold = _threshold;\r\n    }\r\n\r\n    function createProposal(uint256 _amount, address _to) onlySenator() external {\r\n        address[] memory _approvers;\r\n        proposals.push(Proposal({hasPaid:false, amount: _amount, to: _to, approvers: _approvers}));\r\n    }\r\n\r\n    function approve(uint id) onlySenator() external {\r\n        require(proposals.length > id, \"The Proposal doesn't exist!\");\r\n        Proposal storage proposal = proposals[id];\r\n        require(proposal.hasPaid == false, \"The Proposal has been paid!\");\r\n        address[] storage approvers = proposal.approvers;\r\n        for (uint256 i = 0; i < approvers.length; i++) {\r\n            require(approvers[i] != msg.sender, \"You already have approved!\");\r\n        }\r\n        approvers.push(msg.sender);\r\n        if (approvers.length >= threshold) {\r\n            proposal.hasPaid = true;\r\n            payable(proposal.to).transfer(proposal.amount);\r\n        }\r\n    }\r\n\r\n    function getSenators() view external returns (address[] memory) {\r\n        return senators;\r\n    }\r\n\r\n    function getProposals() view external returns (Proposal[] memory) {\r\n        return proposals;\r\n    }\r\n\r\n    receive() external payable {}\r\n\r\n    fallback() external payable {}\r\n\r\n}",
  "sourcePath": "D:\\Pragrams\\truufle\\MutilsigWallet\\contracts\\MultisigWallet.sol",
  "compiler": {
    "name": "solc",
    "version": "0.8.10+commit.fc410830.Emscripten.clang"
  },
  "schemaVersion": "3.4.3",
  "updatedAt": "2021-12-22T14:58:58.890Z",
  "networkType": "ethereum",
  "devdoc": {
    "kind": "dev",
    "methods": {},
    "version": 1
  },
  "userdoc": {
    "kind": "user",
    "methods": {},
    "version": 1
  }
}